{
  "contractName": "dataPark",
  "abi": [
    {
      "inputs": [],
      "payable": true,
      "stateMutability": "payable",
      "type": "constructor",
      "signature": "constructor"
    },
    {
      "constant": false,
      "inputs": [
        {
          "name": "_hash",
          "type": "bytes32"
        }
      ],
      "name": "addParkingLotData",
      "outputs": [],
      "payable": false,
      "stateMutability": "nonpayable",
      "type": "function",
      "signature": "0x95baa127"
    },
    {
      "constant": false,
      "inputs": [],
      "name": "requestParkingLotData",
      "outputs": [
        {
          "name": "",
          "type": "bool"
        }
      ],
      "payable": true,
      "stateMutability": "payable",
      "type": "function",
      "signature": "0x9af15bb7"
    },
    {
      "constant": true,
      "inputs": [
        {
          "name": "_input",
          "type": "string"
        }
      ],
      "name": "getHashFromString",
      "outputs": [
        {
          "name": "",
          "type": "bytes32"
        }
      ],
      "payable": false,
      "stateMutability": "pure",
      "type": "function",
      "signature": "0x7d50fe9b"
    },
    {
      "constant": true,
      "inputs": [],
      "name": "getContractBalance",
      "outputs": [
        {
          "name": "",
          "type": "uint256"
        }
      ],
      "payable": false,
      "stateMutability": "view",
      "type": "function",
      "signature": "0x6f9fb98a"
    }
  ],
  "bytecode": "0x60806040526103b6806100136000396000f3fe608060405260043610610062576000357c0100000000000000000000000000000000000000000000000000000000900463ffffffff1680636f9fb98a146100675780637d50fe9b1461009257806395baa1271461016e5780639af15bb7146101a9575b600080fd5b34801561007357600080fd5b5061007c6101cb565b6040518082815260200191505060405180910390f35b34801561009e57600080fd5b50610158600480360360208110156100b557600080fd5b81019080803590602001906401000000008111156100d257600080fd5b8201836020820111156100e457600080fd5b8035906020019184600183028401116401000000008311171561010657600080fd5b91908080601f016020809104026020016040519081016040528093929190818152602001838380828437600081840152601f19601f8201169050808301925050505050505091929192905050506101d0565b6040518082815260200191505060405180910390f35b34801561017a57600080fd5b506101a76004803603602081101561019157600080fd5b810190808035906020019092919050505061026a565b005b6101b1610309565b604051808215151515815260200191505060405180910390f35b600090565b600080826040516020018080602001828103825283818151815260200191508051906020019080838360005b838110156102175780820151818401526020810190506101fc565b50505050905090810190601f1680156102445780820380516001836020036101000a031916815260200191505b509250505060405160208183030381529060405280519060200120905080915050919050565b3360008083815260200190815260200160002060000160006101000a81548173ffffffffffffffffffffffffffffffffffffffff021916908373ffffffffffffffffffffffffffffffffffffffff1602179055503373ffffffffffffffffffffffffffffffffffffffff166108fc60019081150290604051600060405180830381858888f19350505050158015610305573d6000803e3d6000fd5b5050565b6000600234141515610383576040517f08c379a00000000000000000000000000000000000000000000000000000000081526004018080602001828103825260138152602001807f496e73756666696369656e742066756e6473210000000000000000000000000081525060200191505060405180910390fd5b600190509056fea165627a7a72305820bb3a72320a65b73394d9d83f703b3886146b131ef2ad84ad0c4f7292429ca1a60029",
  "source": "pragma solidity >=0.4.22 <0.6.0;\r\n\r\ncontract dataPark {\r\n\r\n    struct date {\r\n        address owner;\r\n    }\r\n    \r\n    mapping(bytes32 => date) data;\r\n    bytes32[] userAddresses;\r\n    \r\n    constructor() public payable{}\r\n\r\n    function addParkingLotData(bytes32 _hash) public {\r\n        data[_hash].owner = msg.sender;\r\n        msg.sender.transfer(1);\r\n    }\r\n    \r\n    function requestParkingLotData() public payable returns (bool) {\r\n        require(msg.value==2, \"Insufficient funds!\");\r\n        return true;\r\n    }\r\n \r\n    function getHashFromString(string memory _input) public pure returns (bytes32) {\r\n        bytes32 hash = keccak256(abi.encode(_input));\r\n        return hash;\r\n    }\r\n    \r\n    function getContractBalance() public view returns (uint256) {\r\n        address(this).balance;\r\n    }\r\n    \r\n}",
  "sourcePath": "C:/Users/Benedict Wolff/Desktop/dataPark/contract/contracts/dataPark.sol",
  "compiler": {
    "name": "solc",
    "version": "0.5.0+commit.1d4f565a.Emscripten.clang"
  },
  "schemaVersion": "3.0.2",
  "updatedAt": "2019-02-16T21:44:54.021Z",
  "devdoc": {
    "methods": {}
  },
  "userdoc": {
    "methods": {}
  }
}